{
  "contractName": "GouvernementsManager",
  "abi": [
    {
      "inputs": [],
      "stateMutability": "nonpayable",
      "type": "constructor"
    },
    {
      "anonymous": false,
      "inputs": [
        {
          "indexed": false,
          "internalType": "string",
          "name": "_name",
          "type": "string"
        },
        {
          "indexed": false,
          "internalType": "string",
          "name": "_nom",
          "type": "string"
        }
      ],
      "name": "addedProfile",
      "type": "event"
    },
    {
      "anonymous": false,
      "inputs": [
        {
          "indexed": false,
          "internalType": "string",
          "name": "_name",
          "type": "string"
        }
      ],
      "name": "createGouvernement",
      "type": "event"
    },
    {
      "anonymous": false,
      "inputs": [
        {
          "components": [
            {
              "internalType": "string",
              "name": "_nom",
              "type": "string"
            },
            {
              "internalType": "string",
              "name": "_prenom",
              "type": "string"
            },
            {
              "internalType": "uint256",
              "name": "_taille",
              "type": "uint256"
            },
            {
              "internalType": "uint256",
              "name": "_dateNaissance",
              "type": "uint256"
            },
            {
              "internalType": "string",
              "name": "_lieuNaissance",
              "type": "string"
            },
            {
              "internalType": "string",
              "name": "_nationalite",
              "type": "string"
            },
            {
              "internalType": "string",
              "name": "_couleurYeux",
              "type": "string"
            },
            {
              "internalType": "address",
              "name": "_profileAddress",
              "type": "address"
            }
          ],
          "indexed": false,
          "internalType": "struct GouvernementsManager.Profile[]",
          "name": "_Profiles",
          "type": "tuple[]"
        }
      ],
      "name": "getTheProfiles",
      "type": "event"
    },
    {
      "inputs": [
        {
          "internalType": "address",
          "name": "_GouvernementAdress",
          "type": "address"
        },
        {
          "internalType": "string",
          "name": "_name",
          "type": "string"
        }
      ],
      "name": "addGouvernement",
      "outputs": [],
      "stateMutability": "nonpayable",
      "type": "function"
    },
    {
      "inputs": [
        {
          "internalType": "address",
          "name": "_GouvernementAdress",
          "type": "address"
        },
        {
          "internalType": "string",
          "name": "_nom",
          "type": "string"
        },
        {
          "internalType": "string",
          "name": "_prenom",
          "type": "string"
        },
        {
          "internalType": "uint256",
          "name": "_taille",
          "type": "uint256"
        },
        {
          "internalType": "uint256",
          "name": "_dateNaissance",
          "type": "uint256"
        },
        {
          "internalType": "string",
          "name": "_lieuNaissance",
          "type": "string"
        },
        {
          "internalType": "string",
          "name": "_nationalite",
          "type": "string"
        },
        {
          "internalType": "string",
          "name": "_couleurYeux",
          "type": "string"
        },
        {
          "internalType": "address",
          "name": "_profileAddress",
          "type": "address"
        }
      ],
      "name": "addProfile",
      "outputs": [],
      "stateMutability": "nonpayable",
      "type": "function"
    },
    {
      "inputs": [
        {
          "internalType": "address",
          "name": "_GouvernementAdress",
          "type": "address"
        }
      ],
      "name": "getGouvernementProfiles",
      "outputs": [],
      "stateMutability": "nonpayable",
      "type": "function"
    },
    {
      "inputs": [
        {
          "internalType": "address",
          "name": "_GouvernementAdress",
          "type": "address"
        },
        {
          "internalType": "address",
          "name": "_profileAddress",
          "type": "address"
        }
      ],
      "name": "getProfileData",
      "outputs": [
        {
          "internalType": "string",
          "name": "",
          "type": "string"
        },
        {
          "internalType": "string",
          "name": "",
          "type": "string"
        },
        {
          "internalType": "uint256",
          "name": "",
          "type": "uint256"
        },
        {
          "internalType": "uint256",
          "name": "",
          "type": "uint256"
        },
        {
          "internalType": "string",
          "name": "",
          "type": "string"
        },
        {
          "internalType": "string",
          "name": "",
          "type": "string"
        },
        {
          "internalType": "string",
          "name": "",
          "type": "string"
        }
      ],
      "stateMutability": "view",
      "type": "function"
    }
  ],
  "bytecode": "0x608060405234801561001057600080fd5b5033600160006101000a81548173ffffffffffffffffffffffffffffffffffffffff021916908373ffffffffffffffffffffffffffffffffffffffff160217905550611998806100616000396000f3fe608060405234801561001057600080fd5b506004361061004c5760003560e01c80630ab81489146100515780634828d55c1461006d5780639dabe562146100a3578063aa5858d2146100bf575b600080fd5b61006b60048036038101906100669190610f2c565b6100db565b005b61008760048036038101906100829190610f88565b61028c565b60405161009a9796959493929190611069565b60405180910390f35b6100bd60048036038101906100b89190611127565b610875565b005b6100d960048036038101906100d4919061127d565b610bc7565b005b600160009054906101000a900473ffffffffffffffffffffffffffffffffffffffff1673ffffffffffffffffffffffffffffffffffffffff163373ffffffffffffffffffffffffffffffffffffffff161461016b576040517f08c379a0000000000000000000000000000000000000000000000000000000008152600401610162906112f6565b60405180910390fd5b60008060008473ffffffffffffffffffffffffffffffffffffffff1673ffffffffffffffffffffffffffffffffffffffff16815260200190815260200160002060000180546101b990611345565b9050146101fb576040517f08c379a00000000000000000000000000000000000000000000000000000000081526004016101f2906113e9565b60405180910390fd5b806000808473ffffffffffffffffffffffffffffffffffffffff1673ffffffffffffffffffffffffffffffffffffffff1681526020019081526020016000206000019080519060200190610250929190610cd1565b507f3a4c4df66780011af8cd82866b28c7b71467f8e786052f5cac28ecf705467802816040516102809190611409565b60405180910390a15050565b606080600080606080606060008060008b73ffffffffffffffffffffffffffffffffffffffff1673ffffffffffffffffffffffffffffffffffffffff16815260200190815260200160002060000180546102e590611345565b905011610327576040517f08c379a000000000000000000000000000000000000000000000000000000000815260040161031e90611477565b60405180910390fd5b60008060008b73ffffffffffffffffffffffffffffffffffffffff1673ffffffffffffffffffffffffffffffffffffffff168152602001908152602001600020600101805480602002602001604051908101604052809291908181526020016000905b828210156107015783829060005260206000209060080201604051806101000160405290816000820180546103be90611345565b80601f01602080910402602001604051908101604052809291908181526020018280546103ea90611345565b80156104375780601f1061040c57610100808354040283529160200191610437565b820191906000526020600020905b81548152906001019060200180831161041a57829003601f168201915b5050505050815260200160018201805461045090611345565b80601f016020809104026020016040519081016040528092919081815260200182805461047c90611345565b80156104c95780601f1061049e576101008083540402835291602001916104c9565b820191906000526020600020905b8154815290600101906020018083116104ac57829003601f168201915b5050505050815260200160028201548152602001600382015481526020016004820180546104f690611345565b80601f016020809104026020016040519081016040528092919081815260200182805461052290611345565b801561056f5780601f106105445761010080835404028352916020019161056f565b820191906000526020600020905b81548152906001019060200180831161055257829003601f168201915b5050505050815260200160058201805461058890611345565b80601f01602080910402602001604051908101604052809291908181526020018280546105b490611345565b80156106015780601f106105d657610100808354040283529160200191610601565b820191906000526020600020905b8154815290600101906020018083116105e457829003601f168201915b5050505050815260200160068201805461061a90611345565b80601f016020809104026020016040519081016040528092919081815260200182805461064690611345565b80156106935780601f1061066857610100808354040283529160200191610693565b820191906000526020600020905b81548152906001019060200180831161067657829003601f168201915b505050505081526020016007820160009054906101000a900473ffffffffffffffffffffffffffffffffffffffff1673ffffffffffffffffffffffffffffffffffffffff1673ffffffffffffffffffffffffffffffffffffffff16815250508152602001906001019061038a565b50505050905060005b8151811015610866578973ffffffffffffffffffffffffffffffffffffffff1682828151811061073d5761073c611497565b5b602002602001015160e0015173ffffffffffffffffffffffffffffffffffffffff1614156108535781818151811061077857610777611497565b5b60200260200101516000015182828151811061079757610796611497565b5b6020026020010151602001518383815181106107b6576107b5611497565b5b6020026020010151604001518484815181106107d5576107d4611497565b5b6020026020010151606001518585815181106107f4576107f3611497565b5b60200260200101516080015186868151811061081357610812611497565b5b602002602001015160a0015187878151811061083257610831611497565b5b602002602001015160c0015198509850985098509850985098505050610869565b808061085e906114f5565b91505061070a565b50505b92959891949750929550565b600160009054906101000a900473ffffffffffffffffffffffffffffffffffffffff1673ffffffffffffffffffffffffffffffffffffffff163373ffffffffffffffffffffffffffffffffffffffff1614610905576040517f08c379a00000000000000000000000000000000000000000000000000000000081526004016108fc906112f6565b60405180910390fd5b60008060008b73ffffffffffffffffffffffffffffffffffffffff1673ffffffffffffffffffffffffffffffffffffffff168152602001908152602001600020600001805461095390611345565b905011610995576040517f08c379a000000000000000000000000000000000000000000000000000000000815260040161098c9061158a565b60405180910390fd5b60006040518061010001604052808a81526020018981526020018881526020018781526020018681526020018581526020018481526020018373ffffffffffffffffffffffffffffffffffffffff1681525090506000808b73ffffffffffffffffffffffffffffffffffffffff1673ffffffffffffffffffffffffffffffffffffffff1681526020019081526020016000206001018190806001815401808255809150506001900390600052602060002090600802016000909190919091506000820151816000019080519060200190610a70929190610cd1565b506020820151816001019080519060200190610a8d929190610cd1565b5060408201518160020155606082015181600301556080820151816004019080519060200190610abe929190610cd1565b5060a0820151816005019080519060200190610adb929190610cd1565b5060c0820151816006019080519060200190610af8929190610cd1565b5060e08201518160070160006101000a81548173ffffffffffffffffffffffffffffffffffffffff021916908373ffffffffffffffffffffffffffffffffffffffff16021790555050507f9d52159175f8fd581a1f214f1d80bfec95e6d1bbb230edc8d276f222622968306000808c73ffffffffffffffffffffffffffffffffffffffff1673ffffffffffffffffffffffffffffffffffffffff1681526020019081526020016000206000018a604051610bb392919061163f565b60405180910390a150505050505050505050565b60008060008373ffffffffffffffffffffffffffffffffffffffff1673ffffffffffffffffffffffffffffffffffffffff1681526020019081526020016000206000018054610c1590611345565b905011610c57576040517f08c379a0000000000000000000000000000000000000000000000000000000008152600401610c4e9061158a565b60405180910390fd5b7f3949b9bdb708e7999843e6d88cd1abf46addbc785cc383e836da775298f3abe26000808373ffffffffffffffffffffffffffffffffffffffff1673ffffffffffffffffffffffffffffffffffffffff168152602001908152602001600020600101604051610cc69190611940565b60405180910390a150565b828054610cdd90611345565b90600052602060002090601f016020900481019282610cff5760008555610d46565b82601f10610d1857805160ff1916838001178555610d46565b82800160010185558215610d46579182015b82811115610d45578251825591602001919060010190610d2a565b5b509050610d539190610d57565b5090565b5b80821115610d70576000816000905550600101610d58565b5090565b6000604051905090565b600080fd5b600080fd5b600073ffffffffffffffffffffffffffffffffffffffff82169050919050565b6000610db382610d88565b9050919050565b610dc381610da8565b8114610dce57600080fd5b50565b600081359050610de081610dba565b92915050565b600080fd5b600080fd5b6000601f19601f8301169050919050565b7f4e487b7100000000000000000000000000000000000000000000000000000000600052604160045260246000fd5b610e3982610df0565b810181811067ffffffffffffffff82111715610e5857610e57610e01565b5b80604052505050565b6000610e6b610d74565b9050610e778282610e30565b919050565b600067ffffffffffffffff821115610e9757610e96610e01565b5b610ea082610df0565b9050602081019050919050565b82818337600083830152505050565b6000610ecf610eca84610e7c565b610e61565b905082815260208101848484011115610eeb57610eea610deb565b5b610ef6848285610ead565b509392505050565b600082601f830112610f1357610f12610de6565b5b8135610f23848260208601610ebc565b91505092915050565b60008060408385031215610f4357610f42610d7e565b5b6000610f5185828601610dd1565b925050602083013567ffffffffffffffff811115610f7257610f71610d83565b5b610f7e85828601610efe565b9150509250929050565b60008060408385031215610f9f57610f9e610d7e565b5b6000610fad85828601610dd1565b9250506020610fbe85828601610dd1565b9150509250929050565b600081519050919050565b600082825260208201905092915050565b60005b83811015611002578082015181840152602081019050610fe7565b83811115611011576000848401525b50505050565b600061102282610fc8565b61102c8185610fd3565b935061103c818560208601610fe4565b61104581610df0565b840191505092915050565b6000819050919050565b61106381611050565b82525050565b600060e0820190508181036000830152611083818a611017565b905081810360208301526110978189611017565b90506110a6604083018861105a565b6110b3606083018761105a565b81810360808301526110c58186611017565b905081810360a08301526110d98185611017565b905081810360c08301526110ed8184611017565b905098975050505050505050565b61110481611050565b811461110f57600080fd5b50565b600081359050611121816110fb565b92915050565b60008060008060008060008060006101208a8c03121561114a57611149610d7e565b5b60006111588c828d01610dd1565b99505060208a013567ffffffffffffffff81111561117957611178610d83565b5b6111858c828d01610efe565b98505060408a013567ffffffffffffffff8111156111a6576111a5610d83565b5b6111b28c828d01610efe565b97505060606111c38c828d01611112565b96505060806111d48c828d01611112565b95505060a08a013567ffffffffffffffff8111156111f5576111f4610d83565b5b6112018c828d01610efe565b94505060c08a013567ffffffffffffffff81111561122257611221610d83565b5b61122e8c828d01610efe565b93505060e08a013567ffffffffffffffff81111561124f5761124e610d83565b5b61125b8c828d01610efe565b92505061010061126d8c828d01610dd1565b9150509295985092959850929598565b60006020828403121561129357611292610d7e565b5b60006112a184828501610dd1565b91505092915050565b7f4e6f7420746865206f776e656400000000000000000000000000000000000000600082015250565b60006112e0600d83610fd3565b91506112eb826112aa565b602082019050919050565b6000602082019050818103600083015261130f816112d3565b9050919050565b7f4e487b7100000000000000000000000000000000000000000000000000000000600052602260045260246000fd5b6000600282049050600182168061135d57607f821691505b6020821081141561137157611370611316565b5b50919050565b7f5468697320476f757665726e656d656e742068617320616c726561647920626560008201527f656e206372656174656400000000000000000000000000000000000000000000602082015250565b60006113d3602a83610fd3565b91506113de82611377565b604082019050919050565b60006020820190508181036000830152611402816113c6565b9050919050565b600060208201905081810360008301526114238184611017565b905092915050565b7f436520476f757665726e656d656e74206e276578697374652070617300000000600082015250565b6000611461601c83610fd3565b915061146c8261142b565b602082019050919050565b6000602082019050818103600083015261149081611454565b9050919050565b7f4e487b7100000000000000000000000000000000000000000000000000000000600052603260045260246000fd5b7f4e487b7100000000000000000000000000000000000000000000000000000000600052601160045260246000fd5b600061150082611050565b91507fffffffffffffffffffffffffffffffffffffffffffffffffffffffffffffffff821415611533576115326114c6565b5b600182019050919050565b7f5468697320476f757665726e656d656e7420646f6573276e7420657869737473600082015250565b6000611574602083610fd3565b915061157f8261153e565b602082019050919050565b600060208201905081810360008301526115a381611567565b9050919050565b60008190508160005260206000209050919050565b600081546115cc81611345565b6115d68186610fd3565b945060018216600081146115f1576001811461160357611636565b60ff1983168652602086019350611636565b61160c856115aa565b60005b8381101561162e5781548189015260018201915060208101905061160f565b808801955050505b50505092915050565b6000604082019050818103600083015261165981856115bf565b9050818103602083015261166d8184611017565b90509392505050565b600081549050919050565b600082825260208201905092915050565b60008190508160005260206000209050919050565b600082825260208201905092915050565b600081546116c581611345565b6116cf81866116a7565b945060018216600081146116ea57600181146116fc5761172f565b60ff198316865260208601935061172f565b611705856115aa565b60005b8381101561172757815481890152600182019150602081019050611708565b808801955050505b50505092915050565b60008160001c9050919050565b6000819050919050565b600061176261175d83611738565b611745565b9050919050565b61177281611050565b82525050565b600073ffffffffffffffffffffffffffffffffffffffff82169050919050565b60006117ab6117a683611738565b611778565b9050919050565b6117bb81610da8565b82525050565b60006101008301600080840185830360008701526117df83826116b8565b9250506001840185830360208701526117f883826116b8565b9250506002840154905061180b8161174f565b6118186040870182611769565b50600384015490506118298161174f565b6118366060870182611769565b5060048401858303608087015261184d83826116b8565b9250506005840185830360a087015261186683826116b8565b9250506006840185830360c087015261187f83826116b8565b9250506007840154905061189281611798565b61189f60e08701826117b2565b50819250505092915050565b60006118b783836117c1565b905092915050565b6000600882019050919050565b60006118d782611676565b6118e18185611681565b9350836020820285016118f385611692565b8060005b8581101561192e5784840389528161190f85826118ab565b945061191a836118bf565b925060208a019950506001810190506118f7565b50829750879550505050505092915050565b6000602082019050818103600083015261195a81846118cc565b90509291505056fea2646970667358221220d99e8f52e54f3d4e3703081819aedca4dac45c80303d6027635f9ce7046c840264736f6c634300080a0033",
  "immutableReferences": {},
  "source": "// SPDX-License-Identifier: MIT\npragma solidity ^0.8.10;\n\ncontract GouvernementsManager {\n    //Events\n    event createGouvernement(string _name);\n    event addedProfile(string _name, string _nom);\n    event getTheProfiles(Profile[] _Profiles);\n\n    // Reprsente une compilation\n    struct Profile {\n        string _nom; //Nom du profile\n        string _prenom; // Prnom du profile\n        uint256 _taille; //Taille en cm du profile\n        uint256 _dateNaissance; //Date de naissance du profile\n        string _lieuNaissance; //Lieu de naissance du profile\n        string _nationalite; //Nationalit du profile\n        string _couleurYeux; //Couleur des yeux du profile\n        address _profileAddress; //Adresse du profile\n    }\n\n    //Reprsente un Gouvernement\n    struct Gouvernement {\n        string _name; //Nom du Gouvernement\n        Profile[] _Profiles; //Tableau reprsente les profiles du Gouvernement\n    }\n\n    mapping(address => Gouvernement) Gouvernements; //Link l'adresse  un Gouvernement\n    address owner; //addresse du propritaire\n\n    constructor() {\n        owner = msg.sender; //Lors du deploiement stock l'addresse de la personne qui deploie le contrat\n    }\n\n    //Modifier controle si la personne est bien celle qui a dployer le contrat\n    modifier onlyOwner() {\n        require(msg.sender == owner, \"Not the owned\");\n        _;\n    }\n\n    //Ajoute un Gouvernement\n    function addGouvernement(address _GouvernementAdress, string memory _name)\n        external\n        onlyOwner\n    {\n        //Check si le Gouvernement existe si non le crer en lui attribuant un nom\n        require(\n            bytes(Gouvernements[_GouvernementAdress]._name).length == 0,\n            \"This Gouvernement has already been created\"\n        );\n        Gouvernements[_GouvernementAdress]._name = _name;\n        //Dclencher l'evenement permet de rcuperer la data sur la partie Front end entre autre\n        emit createGouvernement(_name);\n    }\n\n    //Ajoute un profile  un Gouvernement\n    function addProfile(\n        address _GouvernementAdress,\n        string memory _nom,\n        string memory _prenom,\n        uint256 _taille,\n        uint256 _dateNaissance,\n        string memory _lieuNaissance,\n        string memory _nationalite,\n        string memory _couleurYeux,\n        address _profileAddress\n    ) external onlyOwner {\n        //Check si le Gouvernement existe si oui crer une variable de type Structure Profile et lui affecte pour valeur\n        //Le nom du profile et les autres donnes passes en paramtre\n        require(\n            bytes(Gouvernements[_GouvernementAdress]._name).length > 0,\n            \"This Gouvernement does'nt exists\"\n        );\n        Profile memory thisProfile = Profile(\n            _nom,\n            _prenom,\n            _taille,\n            _dateNaissance,\n            _lieuNaissance,\n            _nationalite,\n            _couleurYeux,\n            _profileAddress\n        );\n        //Envoi dans le tableau Profiles du Gouvernement la structure thisProfile\n        Gouvernements[_GouvernementAdress]._Profiles.push(thisProfile);\n        //Rcupre le nom du Gouvernement et le nom du profile pour la partie Front end\n        emit addedProfile(Gouvernements[_GouvernementAdress]._name, _nom);\n    }\n\n    //Rcupre les Profiles d'un Gouvernement\n    function getGouvernementProfiles(address _GouvernementAdress) external {\n        require(\n            bytes(Gouvernements[_GouvernementAdress]._name).length > 0,\n            \"This Gouvernement does'nt exists\"\n        );\n        // Rcupre le tableau reprsentatn la compilation pour le front end\n        emit getTheProfiles(Gouvernements[_GouvernementAdress]._Profiles);\n    }\n\n    //fonction qui retourne le profile d'un utilisateur dans un Gouvernement sans utiliser de profile memory\n    function getProfileData(\n        address _GouvernementAdress,\n        address _profileAddress\n    )\n        external\n        view\n        returns (\n            //Retourne les donnes du profile\n            string memory,\n            string memory,\n            uint256,\n            uint256,\n            string memory,\n            string memory,\n            string memory\n        )\n    {\n        require(\n            //Check si le Gouvernement existe\n            bytes(Gouvernements[_GouvernementAdress]._name).length > 0,\n            \"Ce Gouvernement n'existe pas\"\n        );\n        //Rcupre le tableau reprsentant les profiles du Gouvernement\n        Profile[] memory profiles = Gouvernements[_GouvernementAdress]\n            ._Profiles;\n        //Parcours le tableau\n        for (uint256 i = 0; i < profiles.length; i++) {\n            //Si l'adresse du profile correspond  l'adresse du profile pass en paramtre\n            if (profiles[i]._profileAddress == _profileAddress) {\n                //Retourne les donnes du profile\n                return (\n                    profiles[i]._nom,\n                    profiles[i]._prenom,\n                    profiles[i]._taille,\n                    profiles[i]._dateNaissance,\n                    profiles[i]._lieuNaissance,\n                    profiles[i]._nationalite,\n                    profiles[i]._couleurYeux\n                );\n            }\n        }\n    }\n}\n",
  "sourcePath": "C:\\Users\\SpinHit\\Desktop\\Solideprojet\\contracts\\GouvernementsManager.sol",
  "compiler": {
    "name": "solc",
    "version": "0.8.10+commit.fc410830.Emscripten.clang"
  },
  "schemaVersion": "3.4.10",
  "updatedAt": "2022-11-27T20:05:05.793Z",
  "devdoc": {
    "kind": "dev",
    "methods": {},
    "version": 1
  },
  "userdoc": {
    "kind": "user",
    "methods": {},
    "version": 1
  }
}