{
  "contractName": "GouvernementsManager",
  "abi": [
    {
      "inputs": [],
      "stateMutability": "nonpayable",
      "type": "constructor"
    },
    {
      "anonymous": false,
      "inputs": [
        {
          "indexed": false,
          "internalType": "string",
          "name": "_name",
          "type": "string"
        },
        {
          "indexed": false,
          "internalType": "string",
          "name": "_nom",
          "type": "string"
        }
      ],
      "name": "addedProfile",
      "type": "event"
    },
    {
      "anonymous": false,
      "inputs": [
        {
          "indexed": false,
          "internalType": "string",
          "name": "_name",
          "type": "string"
        }
      ],
      "name": "createGouvernement",
      "type": "event"
    },
    {
      "anonymous": false,
      "inputs": [
        {
          "components": [
            {
              "internalType": "string",
              "name": "_nom",
              "type": "string"
            },
            {
              "internalType": "string",
              "name": "_prenom",
              "type": "string"
            },
            {
              "internalType": "uint256",
              "name": "_taille",
              "type": "uint256"
            },
            {
              "internalType": "uint256",
              "name": "_dateNaissance",
              "type": "uint256"
            },
            {
              "internalType": "string",
              "name": "_lieuNaissance",
              "type": "string"
            },
            {
              "internalType": "string",
              "name": "_nationalite",
              "type": "string"
            },
            {
              "internalType": "string",
              "name": "_couleurYeux",
              "type": "string"
            }
          ],
          "indexed": false,
          "internalType": "struct GouvernementsManager.Profile[]",
          "name": "_Profiles",
          "type": "tuple[]"
        }
      ],
      "name": "getTheProfiles",
      "type": "event"
    },
    {
      "inputs": [
        {
          "internalType": "address",
          "name": "_GouvernementAdress",
          "type": "address"
        },
        {
          "internalType": "string",
          "name": "_name",
          "type": "string"
        }
      ],
      "name": "addGouvernement",
      "outputs": [],
      "stateMutability": "nonpayable",
      "type": "function"
    },
    {
      "inputs": [
        {
          "internalType": "address",
          "name": "_GouvernementAdress",
          "type": "address"
        },
        {
          "internalType": "string",
          "name": "_nom",
          "type": "string"
        },
        {
          "internalType": "string",
          "name": "_prenom",
          "type": "string"
        },
        {
          "internalType": "uint256",
          "name": "_taille",
          "type": "uint256"
        },
        {
          "internalType": "uint256",
          "name": "_dateNaissance",
          "type": "uint256"
        },
        {
          "internalType": "string",
          "name": "_lieuNaissance",
          "type": "string"
        },
        {
          "internalType": "string",
          "name": "_nationalite",
          "type": "string"
        },
        {
          "internalType": "string",
          "name": "_couleurYeux",
          "type": "string"
        }
      ],
      "name": "addProfile",
      "outputs": [],
      "stateMutability": "nonpayable",
      "type": "function"
    },
    {
      "inputs": [
        {
          "internalType": "address",
          "name": "_GouvernementAdress",
          "type": "address"
        }
      ],
      "name": "getGouvernementProfiles",
      "outputs": [],
      "stateMutability": "nonpayable",
      "type": "function"
    }
  ],
  "bytecode": "0x608060405234801561001057600080fd5b5033600160006101000a81548173ffffffffffffffffffffffffffffffffffffffff021916908373ffffffffffffffffffffffffffffffffffffffff160217905550611098806100616000396000f3fe608060405234801561001057600080fd5b50600436106100415760003560e01c80630ab8148914610046578063aa5858d214610062578063e809abaf1461007e575b600080fd5b610060600480360381019061005b919061089c565b61009a565b005b61007c600480360381019061007791906108f8565b61024b565b005b6100986004803603810190610093919061095b565b610354565b005b600160009054906101000a900473ffffffffffffffffffffffffffffffffffffffff1673ffffffffffffffffffffffffffffffffffffffff163373ffffffffffffffffffffffffffffffffffffffff161461012a576040517f08c379a000000000000000000000000000000000000000000000000000000000815260040161012190610afa565b60405180910390fd5b60008060008473ffffffffffffffffffffffffffffffffffffffff1673ffffffffffffffffffffffffffffffffffffffff168152602001908152602001600020600001805461017890610b49565b9050146101ba576040517f08c379a00000000000000000000000000000000000000000000000000000000081526004016101b190610bed565b60405180910390fd5b806000808473ffffffffffffffffffffffffffffffffffffffff1673ffffffffffffffffffffffffffffffffffffffff168152602001908152602001600020600001908051906020019061020f929190610641565b507f3a4c4df66780011af8cd82866b28c7b71467f8e786052f5cac28ecf7054678028160405161023f9190610c84565b60405180910390a15050565b60008060008373ffffffffffffffffffffffffffffffffffffffff1673ffffffffffffffffffffffffffffffffffffffff168152602001908152602001600020600001805461029990610b49565b9050116102db576040517f08c379a00000000000000000000000000000000000000000000000000000000081526004016102d290610cf2565b60405180910390fd5b7e5bfeb54c1d903f6c624c4b3033f2f8fc090d81b93d96caa575c417c38e70db6000808373ffffffffffffffffffffffffffffffffffffffff1673ffffffffffffffffffffffffffffffffffffffff1681526020019081526020016000206001016040516103499190610f89565b60405180910390a150565b600160009054906101000a900473ffffffffffffffffffffffffffffffffffffffff1673ffffffffffffffffffffffffffffffffffffffff163373ffffffffffffffffffffffffffffffffffffffff16146103e4576040517f08c379a00000000000000000000000000000000000000000000000000000000081526004016103db90610afa565b60405180910390fd5b60008060008a73ffffffffffffffffffffffffffffffffffffffff1673ffffffffffffffffffffffffffffffffffffffff168152602001908152602001600020600001805461043290610b49565b905011610474576040517f08c379a000000000000000000000000000000000000000000000000000000000815260040161046b90610cf2565b60405180910390fd5b60006040518060e001604052808981526020018881526020018781526020018681526020018581526020018481526020018381525090506000808a73ffffffffffffffffffffffffffffffffffffffff1673ffffffffffffffffffffffffffffffffffffffff1681526020019081526020016000206001018190806001815401808255809150506001900390600052602060002090600702016000909190919091506000820151816000019080519060200190610532929190610641565b50602082015181600101908051906020019061054f929190610641565b5060408201518160020155606082015181600301556080820151816004019080519060200190610580929190610641565b5060a082015181600501908051906020019061059d929190610641565b5060c08201518160060190805190602001906105ba929190610641565b5050507f9d52159175f8fd581a1f214f1d80bfec95e6d1bbb230edc8d276f222622968306000808b73ffffffffffffffffffffffffffffffffffffffff1673ffffffffffffffffffffffffffffffffffffffff1681526020019081526020016000206000018960405161062e92919061102b565b60405180910390a1505050505050505050565b82805461064d90610b49565b90600052602060002090601f01602090048101928261066f57600085556106b6565b82601f1061068857805160ff19168380011785556106b6565b828001600101855582156106b6579182015b828111156106b557825182559160200191906001019061069a565b5b5090506106c391906106c7565b5090565b5b808211156106e05760008160009055506001016106c8565b5090565b6000604051905090565b600080fd5b600080fd5b600073ffffffffffffffffffffffffffffffffffffffff82169050919050565b6000610723826106f8565b9050919050565b61073381610718565b811461073e57600080fd5b50565b6000813590506107508161072a565b92915050565b600080fd5b600080fd5b6000601f19601f8301169050919050565b7f4e487b7100000000000000000000000000000000000000000000000000000000600052604160045260246000fd5b6107a982610760565b810181811067ffffffffffffffff821117156107c8576107c7610771565b5b80604052505050565b60006107db6106e4565b90506107e782826107a0565b919050565b600067ffffffffffffffff82111561080757610806610771565b5b61081082610760565b9050602081019050919050565b82818337600083830152505050565b600061083f61083a846107ec565b6107d1565b90508281526020810184848401111561085b5761085a61075b565b5b61086684828561081d565b509392505050565b600082601f83011261088357610882610756565b5b813561089384826020860161082c565b91505092915050565b600080604083850312156108b3576108b26106ee565b5b60006108c185828601610741565b925050602083013567ffffffffffffffff8111156108e2576108e16106f3565b5b6108ee8582860161086e565b9150509250929050565b60006020828403121561090e5761090d6106ee565b5b600061091c84828501610741565b91505092915050565b6000819050919050565b61093881610925565b811461094357600080fd5b50565b6000813590506109558161092f565b92915050565b600080600080600080600080610100898b03121561097c5761097b6106ee565b5b600061098a8b828c01610741565b985050602089013567ffffffffffffffff8111156109ab576109aa6106f3565b5b6109b78b828c0161086e565b975050604089013567ffffffffffffffff8111156109d8576109d76106f3565b5b6109e48b828c0161086e565b96505060606109f58b828c01610946565b9550506080610a068b828c01610946565b94505060a089013567ffffffffffffffff811115610a2757610a266106f3565b5b610a338b828c0161086e565b93505060c089013567ffffffffffffffff811115610a5457610a536106f3565b5b610a608b828c0161086e565b92505060e089013567ffffffffffffffff811115610a8157610a806106f3565b5b610a8d8b828c0161086e565b9150509295985092959890939650565b600082825260208201905092915050565b7f4e6f7420746865206f776e656400000000000000000000000000000000000000600082015250565b6000610ae4600d83610a9d565b9150610aef82610aae565b602082019050919050565b60006020820190508181036000830152610b1381610ad7565b9050919050565b7f4e487b7100000000000000000000000000000000000000000000000000000000600052602260045260246000fd5b60006002820490506001821680610b6157607f821691505b60208210811415610b7557610b74610b1a565b5b50919050565b7f5468697320476f757665726e656d656e742068617320616c726561647920626560008201527f656e206372656174656400000000000000000000000000000000000000000000602082015250565b6000610bd7602a83610a9d565b9150610be282610b7b565b604082019050919050565b60006020820190508181036000830152610c0681610bca565b9050919050565b600081519050919050565b60005b83811015610c36578082015181840152602081019050610c1b565b83811115610c45576000848401525b50505050565b6000610c5682610c0d565b610c608185610a9d565b9350610c70818560208601610c18565b610c7981610760565b840191505092915050565b60006020820190508181036000830152610c9e8184610c4b565b905092915050565b7f5468697320476f757665726e656d656e7420646f6573276e7420657869737473600082015250565b6000610cdc602083610a9d565b9150610ce782610ca6565b602082019050919050565b60006020820190508181036000830152610d0b81610ccf565b9050919050565b600081549050919050565b600082825260208201905092915050565b60008190508160005260206000209050919050565b600082825260208201905092915050565b60008190508160005260206000209050919050565b60008154610d7681610b49565b610d808186610d43565b94506001821660008114610d9b5760018114610dad57610de0565b60ff1983168652602086019350610de0565b610db685610d54565b60005b83811015610dd857815481890152600182019150602081019050610db9565b808801955050505b50505092915050565b60008160001c9050919050565b6000819050919050565b6000610e13610e0e83610de9565b610df6565b9050919050565b610e2381610925565b82525050565b600060e0830160008084018583036000870152610e468382610d69565b925050600184018583036020870152610e5f8382610d69565b92505060028401549050610e7281610e00565b610e7f6040870182610e1a565b5060038401549050610e9081610e00565b610e9d6060870182610e1a565b50600484018583036080870152610eb48382610d69565b9250506005840185830360a0870152610ecd8382610d69565b9250506006840185830360c0870152610ee68382610d69565b925050819250505092915050565b6000610f008383610e29565b905092915050565b6000600782019050919050565b6000610f2082610d12565b610f2a8185610d1d565b935083602082028501610f3c85610d2e565b8060005b85811015610f7757848403895281610f588582610ef4565b9450610f6383610f08565b925060208a01995050600181019050610f40565b50829750879550505050505092915050565b60006020820190508181036000830152610fa38184610f15565b905092915050565b60008154610fb881610b49565b610fc28186610a9d565b94506001821660008114610fdd5760018114610fef57611022565b60ff1983168652602086019350611022565b610ff885610d54565b60005b8381101561101a57815481890152600182019150602081019050610ffb565b808801955050505b50505092915050565b600060408201905081810360008301526110458185610fab565b905081810360208301526110598184610c4b565b9050939250505056fea26469706673582212205a781489e71aacdf3a061b43d9670ac052d61c502082593ea21745940537617464736f6c634300080a0033",
  "immutableReferences": {},
  "source": "// SPDX-License-Identifier: MIT\npragma solidity ^0.8.10;\n\ncontract GouvernementsManager {\n    //Events\n    event createGouvernement(string _name);\n    event addedProfile(string _name, string _nom);\n    event getTheProfiles(Profile[] _Profiles);\n\n    // Reprsente une compilation\n    struct Profile {\n        string _nom; //Titre de la musique\n        string _prenom;\n        uint256 _taille; //Dure de la musique\n        uint256 _dateNaissance;\n        string _lieuNaissance;\n        string _nationalite;\n        string _couleurYeux;\n    }\n\n    //Reprsente un musicien\n    struct Gouvernement {\n        string _name; //Nom du musicien\n        Profile[] _Profiles; //Tableau reprsente une compilation de musique\n    }\n\n    mapping(address => Gouvernement) Gouvernements; //Link l'adresse  un musicien\n    address owner; //addresse du propritaire\n\n    constructor() {\n        owner = msg.sender; //Lors du deploiement stock l'addresse de la personne qui deploie le contrat\n    }\n\n    //Modifier controle si la personne est bien celle qui a dployer le contrat\n    modifier onlyOwner() {\n        require(msg.sender == owner, \"Not the owned\");\n        _;\n    }\n\n    //Ajoute un musicien\n    function addGouvernement(address _GouvernementAdress, string memory _name)\n        external\n        onlyOwner\n    {\n        //Check si le musicien existe si non le crer en lui attribuant un nom\n        require(\n            bytes(Gouvernements[_GouvernementAdress]._name).length == 0,\n            \"This Gouvernement has already been created\"\n        );\n        Gouvernements[_GouvernementAdress]._name = _name;\n        //Dclencher l'evenement permet de rcuperer la data sur la partie Front end entre autre\n        emit createGouvernement(_name);\n    }\n\n    //Ajoute une musique au musicien\n    function addProfile(\n        address _GouvernementAdress,\n        string memory _nom,\n        string memory _prenom,\n        uint256 _taille,\n        uint256 _dateNaissance,\n        string memory _lieuNaissance,\n        string memory _nationalite,\n        string memory _couleurYeux\n    ) external onlyOwner {\n        //Check si le musicien existe si oui crer une variable de type Structure Profile et lui affecte pour valeur\n        //Le titre et la dure pass en paramtre\n        require(\n            bytes(Gouvernements[_GouvernementAdress]._name).length > 0,\n            \"This Gouvernement does'nt exists\"\n        );\n        Profile memory thisProfile = Profile(\n            _nom,\n            _prenom,\n            _taille,\n            _dateNaissance,\n            _lieuNaissance,\n            _nationalite,\n            _couleurYeux\n        );\n        //Envoi dans le tableau Profiles du musicien la structure thisProfile\n        Gouvernements[_GouvernementAdress]._Profiles.push(thisProfile);\n        //Rcupre le nom du musicien et le titre pour la partie front end\n        emit addedProfile(Gouvernements[_GouvernementAdress]._name, _nom);\n    }\n\n    //Rcupre les Profiles d'un musicien\n    function getGouvernementProfiles(address _GouvernementAdress) external {\n        require(\n            bytes(Gouvernements[_GouvernementAdress]._name).length > 0,\n            \"This Gouvernement does'nt exists\"\n        );\n        // Rcupre le tableau reprsentatn la compilation pour le front end\n        emit getTheProfiles(Gouvernements[_GouvernementAdress]._Profiles);\n    }\n}\n",
  "sourcePath": "C:\\Users\\SpinHit\\Desktop\\musiciansApp-d945cae8bc98998073ab8576ec7fcf76db7abd36\\contracts\\GouvernementsManager.sol",
  "compiler": {
    "name": "solc",
    "version": "0.8.10+commit.fc410830.Emscripten.clang"
  },
  "schemaVersion": "3.4.10",
  "updatedAt": "2022-11-12T14:41:41.848Z",
  "devdoc": {
    "kind": "dev",
    "methods": {},
    "version": 1
  },
  "userdoc": {
    "kind": "user",
    "methods": {},
    "version": 1
  }
}